:020000040000FA
:1000000000308A0004280000FF238316900000308F
:100010008A00C6280A108A100A1182073F34333436
:1000200030340D340A3400340A108A100A11820761
:10003000323435343934303430343034303435348B
:1000400039340D340A3400340A108A100A11820738
:10005000323435343634303430343034303435346E
:1000600036340D340A3400340A108A100A1182071B
:1000700031343234383430343134323439340D346C
:100080000A3400340A108A100A1182077E344F3471
:100090004B340D340A3400340D30A000810181301E
:1000A000840083130008F0390738800064000008DA
:1000B000F739A019F0392004800064008316051177
:1000C00083120515D02843308400831300080319D8
:1000D0007A280130A100BF30A0006400A00B6D2879
:1000E000A10B6B284A30A000A00B7428000064000C
:1000F000800B692808008316051283120512083048
:10010000A10082280000A1179328A113C30C031893
:100110000516031C0512211793282113A10B86280D
:100120009128000005161C308400840B95280000DF
:100130006400A11B8528211B8D28080083168516C5
:1001400064008312851EA6288316A0280830A0000C
:10015000C601A017B928A013B9280310851A0314E3
:10016000C60C2017B9282013A00BAD284608A10003
:10017000C5281C30A01B0730A100A10BBD28000022
:10018000A01BAB28201BB328AD280800831605123E
:1001900083120516AA0107309900A401A5014C2875
:1001A00064000430C200FA30C3006320C20BD328BD
:1001B00083169B019C131C141A088312AE002A0894
:1001C000FC3E0318CA29043ECC29C20142080A2079
:1001D000C20AA000C3007B2005304202031DE628AE
:1001E0009E202108AF002F08333C031DFE280C3051
:1001F000AC002E08AB3C031DAC0106292F087E3C49
:10020000031D05290230AC000629AC010130AB000A
:100210002C082B02031820292F302B07840083136E
:10022000C5010408C4004510831B45149E204408E2
:10023000840083134518831721088000AB0A08291E
:100240002C080C3C031D27290130AA0030292C085A
:10025000023C031D2E290230AA0030290330AA00D7
:10026000CA293208443C031D4129C2014208142016
:10027000C20AA000C3007B200B304202031D3629B6
:100280004C29C20142082420C20AA000C3007B20DE
:100290000B304202031D42292A08033C03198C2912
:1002A0009E202108AF002F084F3C031D8A2964308F
:1002B000C3006320C20142083420C20AA000C30068
:1002C0007B2009304202031D5B299E202108AF00DC
:1002D0002F084F3C031D87290B08A0008B138316A2
:1002E0009B01DE309A009C131C1555309D00AA30EE
:1002F0009D009C149C187A291C11831220088B04E1
:1003000083160511831205116400802989290330A1
:10031000AA008C290330AA00CA293008543C031DC6
:10032000BE29C20142084220C20AA000C3007B20AD
:1003300005304202031D92290B08A0008B1383167F
:100340009B01AB309A009C131C1555309D00AA30C0
:100350009D009C149C18AA291C11831220088B0450
:10036000831605110430831285060230C200FA306C
:10037000C3006320C20BB729B029C0290330AA00EB
:10038000CA29831605110430831285066430C30020
:100390006320C129DF2863000A148A100A1182072A
:1003A000E52831298D29C129FF3FFF3FFF3FFF3F4E
:1003B000FF3FFF3FFF3FFF3FFF3FFF3FFF3FFF3F4D
:1003C000FF3FFF3FFF3FFF3FFF3FFF3FFF3FFF3F3D
:1003D000FF3FFF3FFF3FFF3FFF3FFF3FFF3FFF3F2D
:1003E000FF3FFF3FFF3FFF3FFF3FFF3FFF3FFF3F1D
:1007F000FF3FFF3FFF3FFF3FFF3FFF3FFF3F4434CF
:02400E00EC11B3
:10420000DE00FF00FF00FF00FF00FF00FF00FF00D7
:10421000FF00FF00FF00FF00FF00FF00FF00FF00A6
:10422000FF00FF00FF00FF00FF00FF00FF00FF0096
:10423000FF00FF00FF00FF00FF00FF00FF00FF0086
:10424000FF00FF00FF00FF00FF00FF00FF00FF0076
:10425000FF00FF00FF00FF00FF00FF00FF00FF0066
:10426000FF00FF00FF00FF00FF00FF00FF00FF0056
:10427000FF00FF00FF00FF00FF00FF00FF00FF0046
:10428000FF00FF00FF00FF00FF00FF00FF00FF0036
:10429000FF00FF00FF00FF00FF00FF00FF00FF0026
:1042A000FF00FF00FF00FF00FF00FF00FF00FF0016
:1042B000FF00FF00FF00FF00FF00FF00FF00FF0006
:1042C000FF00FF00FF00FF00FF00FF00FF00FF00F6
:1042D000FF00FF00FF00FF00FF00FF00FF00FF00E6
:1042E000FF00FF00FF00FF00FF00FF00FF00FF00D6
:1042F000FF00FF00FF00FF00FF00FF00FF00FF00C6
:084000000000010000000300B4
:00000001FF
